{
  "contractName": "pnlp",
  "abi": [
    {
      "anonymous": false,
      "inputs": [
        {
          "indexed": false,
          "internalType": "string",
          "name": "publicationName",
          "type": "string"
        },
        {
          "indexed": false,
          "internalType": "string",
          "name": "ipnsHash",
          "type": "string"
        },
        {
          "indexed": false,
          "internalType": "address",
          "name": "publisher",
          "type": "address"
        },
        {
          "indexed": false,
          "internalType": "uint256",
          "name": "timestamp",
          "type": "uint256"
        }
      ],
      "name": "CreatedPublication",
      "type": "event"
    },
    {
      "anonymous": false,
      "inputs": [
        {
          "indexed": false,
          "internalType": "string",
          "name": "publicationName",
          "type": "string"
        },
        {
          "indexed": false,
          "internalType": "address",
          "name": "publisher",
          "type": "address"
        },
        {
          "indexed": false,
          "internalType": "uint256",
          "name": "timestamp",
          "type": "uint256"
        }
      ],
      "name": "PublishedArticle",
      "type": "event"
    },
    {
      "constant": true,
      "inputs": [
        {
          "internalType": "string",
          "name": "",
          "type": "string"
        }
      ],
      "name": "articles",
      "outputs": [
        {
          "internalType": "address",
          "name": "publisher",
          "type": "address"
        },
        {
          "internalType": "uint256",
          "name": "timestamp",
          "type": "uint256"
        }
      ],
      "payable": false,
      "stateMutability": "view",
      "type": "function"
    },
    {
      "constant": true,
      "inputs": [
        {
          "internalType": "string",
          "name": "",
          "type": "string"
        }
      ],
      "name": "publications",
      "outputs": [
        {
          "internalType": "string",
          "name": "ipnsHash",
          "type": "string"
        },
        {
          "internalType": "address",
          "name": "publisher",
          "type": "address"
        },
        {
          "internalType": "uint256",
          "name": "timestamp",
          "type": "uint256"
        }
      ],
      "payable": false,
      "stateMutability": "view",
      "type": "function"
    },
    {
      "constant": false,
      "inputs": [
        {
          "internalType": "string",
          "name": "publicationName",
          "type": "string"
        },
        {
          "internalType": "string",
          "name": "ipnsHash",
          "type": "string"
        }
      ],
      "name": "createPublication",
      "outputs": [],
      "payable": false,
      "stateMutability": "nonpayable",
      "type": "function"
    },
    {
      "constant": false,
      "inputs": [
        {
          "internalType": "string",
          "name": "publicationName",
          "type": "string"
        },
        {
          "internalType": "string",
          "name": "ipfsHash",
          "type": "string"
        }
      ],
      "name": "publishArticle",
      "outputs": [],
      "payable": false,
      "stateMutability": "nonpayable",
      "type": "function"
    }
  ],
  "bytecode": "0x608060405234801561001057600080fd5b50610eb0806100206000396000f3fe608060405234801561001057600080fd5b506004361061004c5760003560e01c80633e1c8b8e146100515780637c702b8d146101a357806395961f05146102a5578063dcc2bbe7146103f7575b600080fd5b6101a16004803603604081101561006757600080fd5b810190808035906020019064010000000081111561008457600080fd5b82018360208201111561009657600080fd5b803590602001918460018302840111640100000000831117156100b857600080fd5b91908080601f016020809104026020016040519081016040528093929190818152602001838380828437600081840152601f19601f8201169050808301925050505050505091929192908035906020019064010000000081111561011b57600080fd5b82018360208201111561012d57600080fd5b8035906020019184600183028401116401000000008311171561014f57600080fd5b91908080601f016020809104026020016040519081016040528093929190818152602001838380828437600081840152601f19601f820116905080830192505050505050509192919290505050610565565b005b61025c600480360360208110156101b957600080fd5b81019080803590602001906401000000008111156101d657600080fd5b8201836020820111156101e857600080fd5b8035906020019184600183028401116401000000008311171561020a57600080fd5b91908080601f016020809104026020016040519081016040528093929190818152602001838380828437600081840152601f19601f8201169050808301925050505050505091929192905050506108d6565b604051808373ffffffffffffffffffffffffffffffffffffffff1673ffffffffffffffffffffffffffffffffffffffff1681526020018281526020019250505060405180910390f35b6103f5600480360360408110156102bb57600080fd5b81019080803590602001906401000000008111156102d857600080fd5b8201836020820111156102ea57600080fd5b8035906020019184600183028401116401000000008311171561030c57600080fd5b91908080601f016020809104026020016040519081016040528093929190818152602001838380828437600081840152601f19601f8201169050808301925050505050505091929192908035906020019064010000000081111561036f57600080fd5b82018360208201111561038157600080fd5b803590602001918460018302840111640100000000831117156103a357600080fd5b91908080601f016020809104026020016040519081016040528093929190818152602001838380828437600081840152601f19601f820116905080830192505050505050509192919290505050610930565b005b6104b06004803603602081101561040d57600080fd5b810190808035906020019064010000000081111561042a57600080fd5b82018360208201111561043c57600080fd5b8035906020019184600183028401116401000000008311171561045e57600080fd5b91908080601f016020809104026020016040519081016040528093929190818152602001838380828437600081840152601f19601f820116905080830192505050505050509192919290505050610c10565b60405180806020018473ffffffffffffffffffffffffffffffffffffffff1673ffffffffffffffffffffffffffffffffffffffff168152602001838152602001828103825285818151815260200191508051906020019080838360005b8381101561052857808201518184015260208101905061050d565b50505050905090810190601f1680156105555780820380516001836020036101000a031916815260200191505b5094505050505060405180910390f35b600073ffffffffffffffffffffffffffffffffffffffff166000836040518082805190602001908083835b602083106105b35780518252602082019150602081019050602083039250610590565b6001836020036101000a038019825116818451168082178552505050505050905001915050908152602001604051809103902060010160009054906101000a900473ffffffffffffffffffffffffffffffffffffffff1673ffffffffffffffffffffffffffffffffffffffff1614610676576040517f08c379a0000000000000000000000000000000000000000000000000000000008152600401808060200182810382526021815260200180610e156021913960400191505060405180910390fd5b7f59cb0ab4451a9a717d0495bf2d4808188e4128a6b9210b00998b09b6c7e9c02c828233426040518080602001806020018573ffffffffffffffffffffffffffffffffffffffff1673ffffffffffffffffffffffffffffffffffffffff168152602001848152602001838103835287818151815260200191508051906020019080838360005b838110156107175780820151818401526020810190506106fc565b50505050905090810190601f1680156107445780820380516001836020036101000a031916815260200191505b50838103825286818151815260200191508051906020019080838360005b8381101561077d578082015181840152602081019050610762565b50505050905090810190601f1680156107aa5780820380516001836020036101000a031916815260200191505b50965050505050505060405180910390a16107c3610d08565b60405180606001604052808381526020013373ffffffffffffffffffffffffffffffffffffffff168152602001428152509050806000846040518082805190602001908083835b6020831061082d578051825260208201915060208101905060208303925061080a565b6001836020036101000a0380198251168184511680821785525050505050509050019150509081526020016040518091039020600082015181600001908051906020019061087c929190610d3f565b5060208201518160010160006101000a81548173ffffffffffffffffffffffffffffffffffffffff021916908373ffffffffffffffffffffffffffffffffffffffff16021790555060408201518160020155905050505050565b6001818051602081018201805184825260208301602085012081835280955050505050506000915090508060000160009054906101000a900473ffffffffffffffffffffffffffffffffffffffff16908060010154905082565b3373ffffffffffffffffffffffffffffffffffffffff166000836040518082805190602001908083835b6020831061097d578051825260208201915060208101905060208303925061095a565b6001836020036101000a038019825116818451168082178552505050505050905001915050908152602001604051809103902060010160009054906101000a900473ffffffffffffffffffffffffffffffffffffffff1673ffffffffffffffffffffffffffffffffffffffff1614610a40576040517f08c379a0000000000000000000000000000000000000000000000000000000008152600401808060200182810382526046815260200180610e366046913960600191505060405180910390fd5b7f4ec7a96987a897f99c993ec01a455ace03c64a9a15d2dad51d2f0774924fb2a382334260405180806020018473ffffffffffffffffffffffffffffffffffffffff1673ffffffffffffffffffffffffffffffffffffffff168152602001838152602001828103825285818151815260200191508051906020019080838360005b83811015610adc578082015181840152602081019050610ac1565b50505050905090810190601f168015610b095780820380516001836020036101000a031916815260200191505b5094505050505060405180910390a1610b20610dbf565b60405180604001604052803373ffffffffffffffffffffffffffffffffffffffff168152602001428152509050806001836040518082805190602001908083835b60208310610b845780518252602082019150602081019050602083039250610b61565b6001836020036101000a038019825116818451168082178552505050505050905001915050908152602001604051809103902060008201518160000160006101000a81548173ffffffffffffffffffffffffffffffffffffffff021916908373ffffffffffffffffffffffffffffffffffffffff16021790555060208201518160010155905050505050565b600081805160208101820180518482526020830160208501208183528095505050505050600091509050806000018054600181600116156101000203166002900480601f016020809104026020016040519081016040528092919081815260200182805460018160011615610100020316600290048015610cd25780601f10610ca757610100808354040283529160200191610cd2565b820191906000526020600020905b815481529060010190602001808311610cb557829003601f168201915b5050505050908060010160009054906101000a900473ffffffffffffffffffffffffffffffffffffffff16908060020154905083565b604051806060016040528060608152602001600073ffffffffffffffffffffffffffffffffffffffff168152602001600081525090565b828054600181600116156101000203166002900490600052602060002090601f016020900481019282601f10610d8057805160ff1916838001178555610dae565b82800160010185558215610dae579182015b82811115610dad578251825591602001919060010190610d92565b5b509050610dbb9190610def565b5090565b6040518060400160405280600073ffffffffffffffffffffffffffffffffffffffff168152602001600081525090565b610e1191905b80821115610e0d576000816000905550600101610df5565b5090565b9056fe7075626c69636174696f6e4e616d6520697320616c726561647920696e2075736561727469636c65732063616e206f6e6c7920626520616464656420746f2061207075626c69636174696f6e20627920746865207075626c69636174696f6e2063726561746f72a265627a7a72315820ffddb983bc854d8a984477cef9c1d7b73354a41dbea4e3b3466fa2e985f71f2464736f6c63430005100032",
  "source": "pragma solidity >=0.4.25 <0.7.0;\n\ncontract pnlp {\n    struct Publication {\n        string ipnsHash;\n        address publisher;\n        uint256 timestamp;\n    }\n\n    struct Article {\n        address publisher;\n        uint256 timestamp;\n    }\n\n    mapping (string => Publication) public publications;\n    mapping (string => Article) public articles;\n\n    event CreatedPublication(string publicationName, string ipnsHash, address publisher, uint256 timestamp);\n    event PublishedArticle(string publicationName, address publisher, uint256 timestamp);\n\n    function createPublication(string memory publicationName, string memory ipnsHash) public {\n        // Using ipns\n        // No collisions allowed!\n        // record callers address\n        // v3 Require a stake\n        require(publications[publicationName].publisher == address(0), \"publicationName is already in use\");\n        emit CreatedPublication(publicationName, ipnsHash, msg.sender, block.timestamp);\n        Publication memory publication = Publication(ipnsHash, msg.sender, block.timestamp);\n        publications[publicationName] = publication;\n    }\n\n    function publishArticle(string memory publicationName, string memory ipfsHash) public {\n        require(publications[publicationName].publisher == msg.sender, \"articles can only be added to a publication by the publication creator\");\n\n        // Unsure about this following line. If we add it in, we need to make sure that we support it.\n        // We may want to require that the hash and the publication not be reused? Need to talk to team to figure out what we want to do...\n        // require(articles[ipfsHash].publisher == address(0), \"ipfsHash is already in use\");\n\n        emit PublishedArticle(publicationName, msg.sender, block.timestamp);\n        Article memory article = Article(msg.sender, block.timestamp);\n        articles[ipfsHash] = article;\n    }\n\n    // - Get all of the publications? - Not now (check out The Graph)\n    // - You know the publication, list all of the articles?\n    // - Get ipns hash of pulbication from name of pulbication\n    // - v3 Keep track of ipFs addresses of publications so that when ipns points to something else, history is kept.\n}\n",
  "sourcePath": "/inmanlabs/workspace/pnlp/pnlp-contract/contracts/pnlp.sol",
  "compiler": {
    "name": "solc",
    "version": "0.5.16+commit.9c3226ce.Emscripten.clang"
  },
  "schemaVersion": "3.2.0",
  "updatedAt": "2020-07-30T01:20:14.559Z",
  "devdoc": {
    "methods": {}
  },
  "userdoc": {
    "methods": {}
  }
}